{
  "_format": "hh-sol-artifact-1",
  "contractName": "Nft",
  "sourceName": "contracts/Nft.sol",
  "abi": [
    {
      "inputs": [],
      "stateMutability": "nonpayable",
      "type": "constructor"
    },
    {
      "anonymous": false,
      "inputs": [
        {
          "indexed": true,
          "internalType": "address",
          "name": "owner",
          "type": "address"
        },
        {
          "indexed": true,
          "internalType": "address",
          "name": "approved",
          "type": "address"
        },
        {
          "indexed": true,
          "internalType": "uint256",
          "name": "tokenId",
          "type": "uint256"
        }
      ],
      "name": "Approval",
      "type": "event"
    },
    {
      "anonymous": false,
      "inputs": [
        {
          "indexed": true,
          "internalType": "address",
          "name": "owner",
          "type": "address"
        },
        {
          "indexed": true,
          "internalType": "address",
          "name": "operator",
          "type": "address"
        },
        {
          "indexed": false,
          "internalType": "bool",
          "name": "approved",
          "type": "bool"
        }
      ],
      "name": "ApprovalForAll",
      "type": "event"
    },
    {
      "anonymous": false,
      "inputs": [
        {
          "indexed": false,
          "internalType": "address",
          "name": "sender",
          "type": "address"
        },
        {
          "indexed": false,
          "internalType": "uint256",
          "name": "tokenId",
          "type": "uint256"
        }
      ],
      "name": "NewNFTMinted",
      "type": "event"
    },
    {
      "anonymous": false,
      "inputs": [
        {
          "indexed": true,
          "internalType": "address",
          "name": "from",
          "type": "address"
        },
        {
          "indexed": true,
          "internalType": "address",
          "name": "to",
          "type": "address"
        },
        {
          "indexed": true,
          "internalType": "uint256",
          "name": "tokenId",
          "type": "uint256"
        }
      ],
      "name": "Transfer",
      "type": "event"
    },
    {
      "inputs": [
        {
          "internalType": "address",
          "name": "to",
          "type": "address"
        },
        {
          "internalType": "uint256",
          "name": "tokenId",
          "type": "uint256"
        }
      ],
      "name": "approve",
      "outputs": [],
      "stateMutability": "nonpayable",
      "type": "function"
    },
    {
      "inputs": [
        {
          "internalType": "address",
          "name": "owner",
          "type": "address"
        }
      ],
      "name": "balanceOf",
      "outputs": [
        {
          "internalType": "uint256",
          "name": "",
          "type": "uint256"
        }
      ],
      "stateMutability": "view",
      "type": "function"
    },
    {
      "inputs": [
        {
          "internalType": "uint256",
          "name": "tokenId",
          "type": "uint256"
        }
      ],
      "name": "getApproved",
      "outputs": [
        {
          "internalType": "address",
          "name": "",
          "type": "address"
        }
      ],
      "stateMutability": "view",
      "type": "function"
    },
    {
      "inputs": [
        {
          "internalType": "address",
          "name": "owner",
          "type": "address"
        },
        {
          "internalType": "address",
          "name": "operator",
          "type": "address"
        }
      ],
      "name": "isApprovedForAll",
      "outputs": [
        {
          "internalType": "bool",
          "name": "",
          "type": "bool"
        }
      ],
      "stateMutability": "view",
      "type": "function"
    },
    {
      "inputs": [],
      "name": "mintNft",
      "outputs": [],
      "stateMutability": "nonpayable",
      "type": "function"
    },
    {
      "inputs": [],
      "name": "name",
      "outputs": [
        {
          "internalType": "string",
          "name": "",
          "type": "string"
        }
      ],
      "stateMutability": "view",
      "type": "function"
    },
    {
      "inputs": [
        {
          "internalType": "uint256",
          "name": "tokenId",
          "type": "uint256"
        }
      ],
      "name": "ownerOf",
      "outputs": [
        {
          "internalType": "address",
          "name": "",
          "type": "address"
        }
      ],
      "stateMutability": "view",
      "type": "function"
    },
    {
      "inputs": [
        {
          "internalType": "uint256",
          "name": "tokenId",
          "type": "uint256"
        },
        {
          "internalType": "string[]",
          "name": "colours",
          "type": "string[]"
        }
      ],
      "name": "pickRandomColour",
      "outputs": [
        {
          "internalType": "string",
          "name": "",
          "type": "string"
        }
      ],
      "stateMutability": "view",
      "type": "function"
    },
    {
      "inputs": [
        {
          "internalType": "address",
          "name": "from",
          "type": "address"
        },
        {
          "internalType": "address",
          "name": "to",
          "type": "address"
        },
        {
          "internalType": "uint256",
          "name": "tokenId",
          "type": "uint256"
        }
      ],
      "name": "safeTransferFrom",
      "outputs": [],
      "stateMutability": "nonpayable",
      "type": "function"
    },
    {
      "inputs": [
        {
          "internalType": "address",
          "name": "from",
          "type": "address"
        },
        {
          "internalType": "address",
          "name": "to",
          "type": "address"
        },
        {
          "internalType": "uint256",
          "name": "tokenId",
          "type": "uint256"
        },
        {
          "internalType": "bytes",
          "name": "_data",
          "type": "bytes"
        }
      ],
      "name": "safeTransferFrom",
      "outputs": [],
      "stateMutability": "nonpayable",
      "type": "function"
    },
    {
      "inputs": [
        {
          "internalType": "address",
          "name": "operator",
          "type": "address"
        },
        {
          "internalType": "bool",
          "name": "approved",
          "type": "bool"
        }
      ],
      "name": "setApprovalForAll",
      "outputs": [],
      "stateMutability": "nonpayable",
      "type": "function"
    },
    {
      "inputs": [
        {
          "internalType": "bytes4",
          "name": "interfaceId",
          "type": "bytes4"
        }
      ],
      "name": "supportsInterface",
      "outputs": [
        {
          "internalType": "bool",
          "name": "",
          "type": "bool"
        }
      ],
      "stateMutability": "view",
      "type": "function"
    },
    {
      "inputs": [],
      "name": "symbol",
      "outputs": [
        {
          "internalType": "string",
          "name": "",
          "type": "string"
        }
      ],
      "stateMutability": "view",
      "type": "function"
    },
    {
      "inputs": [
        {
          "internalType": "uint256",
          "name": "tokenId",
          "type": "uint256"
        }
      ],
      "name": "tokenURI",
      "outputs": [
        {
          "internalType": "string",
          "name": "",
          "type": "string"
        }
      ],
      "stateMutability": "view",
      "type": "function"
    },
    {
      "inputs": [
        {
          "internalType": "address",
          "name": "from",
          "type": "address"
        },
        {
          "internalType": "address",
          "name": "to",
          "type": "address"
        },
        {
          "internalType": "uint256",
          "name": "tokenId",
          "type": "uint256"
        }
      ],
      "name": "transferFrom",
      "outputs": [],
      "stateMutability": "nonpayable",
      "type": "function"
    }
  ],
  "bytecode": "0x60806040526040518060c001604052806040518060400160405280600681526020017f413746334430000000000000000000000000000000000000000000000000000081525081526020016040518060400160405280600681526020017f464344333444000000000000000000000000000000000000000000000000000081525081526020016040518060400160405280600681526020017f344235353633000000000000000000000000000000000000000000000000000081525081526020016040518060400160405280600681526020017f363041354641000000000000000000000000000000000000000000000000000081525081526020016040518060400160405280600681526020017f383138434638000000000000000000000000000000000000000000000000000081525081526020016040518060400160405280600681526020017f384235434636000000000000000000000000000000000000000000000000000081525081525060089060066200018192919062000711565b506040518060c001604052806040518060400160405280600681526020017f444232373737000000000000000000000000000000000000000000000000000081525081526020016040518060400160405280600681526020017f443937373036000000000000000000000000000000000000000000000000000081525081526020016040518060400160405280600681526020017f344235353633000000000000000000000000000000000000000000000000000081525081526020016040518060400160405280600681526020017f344331443935000000000000000000000000000000000000000000000000000081525081526020016040518060400160405280600681526020017f313042393831000000000000000000000000000000000000000000000000000081525081526020016040518060400160405280600681526020017f46424346453800000000000000000000000000000000000000000000000000008152508152506009906006620002ff92919062000711565b506040518060c001604052806040518060400160405280600681526020017f394341334146000000000000000000000000000000000000000000000000000081525081526020016040518060400160405280600681526020017f463837313731000000000000000000000000000000000000000000000000000081525081526020016040518060400160405280600681526020017f373833353046000000000000000000000000000000000000000000000000000081525081526020016040518060400160405280600681526020017f373833353046000000000000000000000000000000000000000000000000000081525081526020016040518060400160405280600681526020017f453045374646000000000000000000000000000000000000000000000000000081525081526020016040518060400160405280600681526020017f4634373242360000000000000000000000000000000000000000000000000000815250815250600a9060066200047d92919062000711565b506040518060e0016040528060a481526020016200456460a49139600b9080519060200190620004af92919062000778565b506040518060600160405280603b815260200162004608603b9139600c9080519060200190620004e192919062000778565b506040518060600160405280603d815260200162004527603d9139600d90805190602001906200051392919062000778565b506040518060600160405280603c815260200162004643603c9139600e90805190602001906200054592919062000778565b503480156200055357600080fd5b506040518060400160405280600881526020017f5472694c696e65730000000000000000000000000000000000000000000000008152506040518060400160405280600381526020017f54524900000000000000000000000000000000000000000000000000000000008152508160009080519060200190620005d892919062000778565b508060019080519060200190620005f192919062000778565b5050506200063f6040518060400160405280601881526020017f54686973206973206d79204e465420636f6e74726163742e00000000000000008152506200064560201b620011421760201c565b620009c3565b620006e5816040516024016200065c9190620008d7565b6040516020818303038152906040527f41304fac000000000000000000000000000000000000000000000000000000007bffffffffffffffffffffffffffffffffffffffffffffffffffffffff19166020820180517bffffffffffffffffffffffffffffffffffffffffffffffffffffffff8381831617835250505050620006e860201b60201c565b50565b60008151905060006a636f6e736f6c652e6c6f679050602083016000808483855afa5050505050565b82805482825590600052602060002090810192821562000765579160200282015b82811115620007645782518290805190602001906200075392919062000778565b509160200191906001019062000732565b5b50905062000774919062000809565b5090565b82805462000786906200094d565b90600052602060002090601f016020900481019282620007aa5760008555620007f6565b82601f10620007c557805160ff1916838001178555620007f6565b82800160010185558215620007f6579182015b82811115620007f5578251825591602001919060010190620007d8565b5b50905062000805919062000831565b5090565b5b808211156200082d576000818162000823919062000850565b506001016200080a565b5090565b5b808211156200084c57600081600090555060010162000832565b5090565b5080546200085e906200094d565b6000825580601f1062000872575062000893565b601f01602090049060005260206000209081019062000892919062000831565b5b50565b6000620008a382620008fb565b620008af818562000906565b9350620008c181856020860162000917565b620008cc81620009b2565b840191505092915050565b60006020820190508181036000830152620008f3818462000896565b905092915050565b600081519050919050565b600082825260208201905092915050565b60005b83811015620009375780820151818401526020810190506200091a565b8381111562000947576000848401525b50505050565b600060028204905060018216806200096657607f821691505b602082108114156200097d576200097c62000983565b5b50919050565b7f4e487b7100000000000000000000000000000000000000000000000000000000600052602260045260246000fd5b6000601f19601f8301169050919050565b613b5480620009d36000396000f3fe608060405234801561001057600080fd5b50600436106100f55760003560e01c806370a0823111610097578063c2229fea11610066578063c2229fea14610282578063c87b56dd1461028c578063e489a360146102bc578063e985e9c5146102ec576100f5565b806370a08231146101fc57806395d89b411461022c578063a22cb4651461024a578063b88d4fde14610266576100f5565b8063095ea7b3116100d3578063095ea7b31461017857806323b872dd1461019457806342842e0e146101b05780636352211e146101cc576100f5565b806301ffc9a7146100fa57806306fdde031461012a578063081812fc14610148575b600080fd5b610114600480360381019061010f91906126db565b61031c565b6040516101219190613362565b60405180910390f35b6101326103fe565b60405161013f919061337d565b60405180910390f35b610162600480360381019061015d919061272d565b610490565b60405161016f91906132d2565b60405180910390f35b610192600480360381019061018d919061269f565b610515565b005b6101ae60048036038101906101a99190612599565b61062d565b005b6101ca60048036038101906101c59190612599565b61068d565b005b6101e660048036038101906101e1919061272d565b6106ad565b6040516101f391906132d2565b60405180910390f35b61021660048036038101906102119190612534565b61075f565b60405161022391906135dd565b60405180910390f35b610234610817565b604051610241919061337d565b60405180910390f35b610264600480360381019061025f9190612663565b6108a9565b005b610280600480360381019061027b91906125e8565b610a2a565b005b61028a610a8c565b005b6102a660048036038101906102a1919061272d565b610ecb565b6040516102b3919061337d565b60405180910390f35b6102d660048036038101906102d19190612756565b61101d565b6040516102e3919061337d565b60405180910390f35b6103066004803603810190610301919061255d565b6110ae565b6040516103139190613362565b60405180910390f35b60007f80ac58cd000000000000000000000000000000000000000000000000000000007bffffffffffffffffffffffffffffffffffffffffffffffffffffffff1916827bffffffffffffffffffffffffffffffffffffffffffffffffffffffff191614806103e757507f5b5e139f000000000000000000000000000000000000000000000000000000007bffffffffffffffffffffffffffffffffffffffffffffffffffffffff1916827bffffffffffffffffffffffffffffffffffffffffffffffffffffffff1916145b806103f757506103f6826111db565b5b9050919050565b60606000805461040d906138d8565b80601f0160208091040260200160405190810160405280929190818152602001828054610439906138d8565b80156104865780601f1061045b57610100808354040283529160200191610486565b820191906000526020600020905b81548152906001019060200180831161046957829003601f168201915b5050505050905090565b600061049b82611245565b6104da576040517f08c379a00000000000000000000000000000000000000000000000000000000081526004016104d19061353d565b60405180910390fd5b6004600083815260200190815260200160002060009054906101000a900473ffffffffffffffffffffffffffffffffffffffff169050919050565b6000610520826106ad565b90508073ffffffffffffffffffffffffffffffffffffffff168373ffffffffffffffffffffffffffffffffffffffff161415610591576040517f08c379a00000000000000000000000000000000000000000000000000000000081526004016105889061359d565b60405180910390fd5b8073ffffffffffffffffffffffffffffffffffffffff166105b06112b1565b73ffffffffffffffffffffffffffffffffffffffff1614806105df57506105de816105d96112b1565b6110ae565b5b61061e576040517f08c379a00000000000000000000000000000000000000000000000000000000081526004016106159061347d565b60405180910390fd5b61062883836112b9565b505050565b61063e6106386112b1565b82611372565b61067d576040517f08c379a0000000000000000000000000000000000000000000000000000000008152600401610674906135bd565b60405180910390fd5b610688838383611450565b505050565b6106a883838360405180602001604052806000815250610a2a565b505050565b6000806002600084815260200190815260200160002060009054906101000a900473ffffffffffffffffffffffffffffffffffffffff169050600073ffffffffffffffffffffffffffffffffffffffff168173ffffffffffffffffffffffffffffffffffffffff161415610756576040517f08c379a000000000000000000000000000000000000000000000000000000000815260040161074d906134bd565b60405180910390fd5b80915050919050565b60008073ffffffffffffffffffffffffffffffffffffffff168273ffffffffffffffffffffffffffffffffffffffff1614156107d0576040517f08c379a00000000000000000000000000000000000000000000000000000000081526004016107c79061349d565b60405180910390fd5b600360008373ffffffffffffffffffffffffffffffffffffffff1673ffffffffffffffffffffffffffffffffffffffff168152602001908152602001600020549050919050565b606060018054610826906138d8565b80601f0160208091040260200160405190810160405280929190818152602001828054610852906138d8565b801561089f5780601f106108745761010080835404028352916020019161089f565b820191906000526020600020905b81548152906001019060200180831161088257829003601f168201915b5050505050905090565b6108b16112b1565b73ffffffffffffffffffffffffffffffffffffffff168273ffffffffffffffffffffffffffffffffffffffff16141561091f576040517f08c379a00000000000000000000000000000000000000000000000000000000081526004016109169061343d565b60405180910390fd5b806005600061092c6112b1565b73ffffffffffffffffffffffffffffffffffffffff1673ffffffffffffffffffffffffffffffffffffffff16815260200190815260200160002060008473ffffffffffffffffffffffffffffffffffffffff1673ffffffffffffffffffffffffffffffffffffffff16815260200190815260200160002060006101000a81548160ff0219169083151502179055508173ffffffffffffffffffffffffffffffffffffffff166109d96112b1565b73ffffffffffffffffffffffffffffffffffffffff167f17307eab39ab6107e8899845ad3d59bd9653f200f220920489ca2b5937696c3183604051610a1e9190613362565b60405180910390a35050565b610a3b610a356112b1565b83611372565b610a7a576040517f08c379a0000000000000000000000000000000000000000000000000000000008152600401610a71906135bd565b60405180910390fd5b610a86848484846116ac565b50505050565b6000610a986007611708565b90506000610b77826008805480602002602001604051908101604052809291908181526020016000905b82821015610b6e578382906000526020600020018054610ae1906138d8565b80601f0160208091040260200160405190810160405280929190818152602001828054610b0d906138d8565b8015610b5a5780601f10610b2f57610100808354040283529160200191610b5a565b820191906000526020600020905b815481529060010190602001808311610b3d57829003601f168201915b505050505081526020019060010190610ac2565b5050505061101d565b90506000610c56836009805480602002602001604051908101604052809291908181526020016000905b82821015610c4d578382906000526020600020018054610bc0906138d8565b80601f0160208091040260200160405190810160405280929190818152602001828054610bec906138d8565b8015610c395780601f10610c0e57610100808354040283529160200191610c39565b820191906000526020600020905b815481529060010190602001808311610c1c57829003601f168201915b505050505081526020019060010190610ba1565b5050505061101d565b90506000610d3584600a805480602002602001604051908101604052809291908181526020016000905b82821015610d2c578382906000526020600020018054610c9f906138d8565b80601f0160208091040260200160405190810160405280929190818152602001828054610ccb906138d8565b8015610d185780601f10610ced57610100808354040283529160200191610d18565b820191906000526020600020905b815481529060010190602001808311610cfb57829003601f168201915b505050505081526020019060010190610c80565b5050505061101d565b90506000610d44848484611716565b90506000604051602001610d579061322e565b60405160208183030381529060405290506000610d9c82610d7785611901565b604051602001610d88929190613243565b604051602081830303815290604052611901565b9050600081604051602001610db19190613288565b6040516020818303038152906040529050610e006040518060400160405280601581526020017f0a2d2d2d2d2d2d2d2d2d2d2d2d2d2d2d2d2d2d2d2d0000000000000000000000815250611142565b610e0981611142565b610e476040518060400160405280601581526020017f2d2d2d2d2d2d2d2d2d2d2d2d2d2d2d2d2d2d2d2d0a0000000000000000000000815250611142565b610e513389611abf565b610e5b8882611add565b610e656007611b51565b610e88604051806060016040528060278152602001613af8602791398933611b67565b7f1c05098ed1ff38e6238d2b1b04b2c7977d4c94ce651bda6473f9dba8dbf01da03389604051610eb9929190613339565b60405180910390a15050505050505050565b6060610ed682611245565b610f15576040517f08c379a0000000000000000000000000000000000000000000000000000000008152600401610f0c9061351d565b60405180910390fd5b6000600660008481526020019081526020016000208054610f35906138d8565b80601f0160208091040260200160405190810160405280929190818152602001828054610f61906138d8565b8015610fae5780601f10610f8357610100808354040283529160200191610fae565b820191906000526020600020905b815481529060010190602001808311610f9157829003601f168201915b505050505090506000610fbf611c06565b9050600081511415610fd5578192505050611018565b60008251111561100a578082604051602001610ff2929190613187565b60405160208183030381529060405292505050611018565b61101384611c1d565b925050505b919050565b606060006110534261102e86611cc4565b60405160200161103f9291906132aa565b604051602081830303815290604052611e71565b9050825181611062919061395d565b905082818151811061109d577f4e487b7100000000000000000000000000000000000000000000000000000000600052603260045260246000fd5b602002602001015191505092915050565b6000600560008473ffffffffffffffffffffffffffffffffffffffff1673ffffffffffffffffffffffffffffffffffffffff16815260200190815260200160002060008373ffffffffffffffffffffffffffffffffffffffff1673ffffffffffffffffffffffffffffffffffffffff16815260200190815260200160002060009054906101000a900460ff16905092915050565b6111d881604051602401611156919061337d565b6040516020818303038152906040527f41304fac000000000000000000000000000000000000000000000000000000007bffffffffffffffffffffffffffffffffffffffffffffffffffffffff19166020820180517bffffffffffffffffffffffffffffffffffffffffffffffffffffffff8381831617835250505050611ea4565b50565b60007f01ffc9a7000000000000000000000000000000000000000000000000000000007bffffffffffffffffffffffffffffffffffffffffffffffffffffffff1916827bffffffffffffffffffffffffffffffffffffffffffffffffffffffff1916149050919050565b60008073ffffffffffffffffffffffffffffffffffffffff166002600084815260200190815260200160002060009054906101000a900473ffffffffffffffffffffffffffffffffffffffff1673ffffffffffffffffffffffffffffffffffffffff1614159050919050565b600033905090565b816004600083815260200190815260200160002060006101000a81548173ffffffffffffffffffffffffffffffffffffffff021916908373ffffffffffffffffffffffffffffffffffffffff160217905550808273ffffffffffffffffffffffffffffffffffffffff1661132c836106ad565b73ffffffffffffffffffffffffffffffffffffffff167f8c5be1e5ebec7d5bd14f71427d1e84f3dd0314c0f7b2291e5b200ac8c7c3b92560405160405180910390a45050565b600061137d82611245565b6113bc576040517f08c379a00000000000000000000000000000000000000000000000000000000081526004016113b39061345d565b60405180910390fd5b60006113c7836106ad565b90508073ffffffffffffffffffffffffffffffffffffffff168473ffffffffffffffffffffffffffffffffffffffff16148061143657508373ffffffffffffffffffffffffffffffffffffffff1661141e84610490565b73ffffffffffffffffffffffffffffffffffffffff16145b80611447575061144681856110ae565b5b91505092915050565b8273ffffffffffffffffffffffffffffffffffffffff16611470826106ad565b73ffffffffffffffffffffffffffffffffffffffff16146114c6576040517f08c379a00000000000000000000000000000000000000000000000000000000081526004016114bd9061355d565b60405180910390fd5b600073ffffffffffffffffffffffffffffffffffffffff168273ffffffffffffffffffffffffffffffffffffffff161415611536576040517f08c379a000000000000000000000000000000000000000000000000000000000815260040161152d9061341d565b60405180910390fd5b611541838383611ecd565b61154c6000826112b9565b6001600360008573ffffffffffffffffffffffffffffffffffffffff1673ffffffffffffffffffffffffffffffffffffffff168152602001908152602001600020600082825461159c91906137ee565b925050819055506001600360008473ffffffffffffffffffffffffffffffffffffffff1673ffffffffffffffffffffffffffffffffffffffff16815260200190815260200160002060008282546115f3919061370d565b92505081905550816002600083815260200190815260200160002060006101000a81548173ffffffffffffffffffffffffffffffffffffffff021916908373ffffffffffffffffffffffffffffffffffffffff160217905550808273ffffffffffffffffffffffffffffffffffffffff168473ffffffffffffffffffffffffffffffffffffffff167fddf252ad1be2c89b69c2b068fc378daa952ba7f163c4a11628f55a4df523b3ef60405160405180910390a4505050565b6116b7848484611450565b6116c384848484611ed2565b611702576040517f08c379a00000000000000000000000000000000000000000000000000000000081526004016116f9906133dd565b60405180910390fd5b50505050565b600081600001549050919050565b6060600b6117ae600c805461172a906138d8565b80601f0160208091040260200160405190810160405280929190818152602001828054611756906138d8565b80156117a35780601f10611778576101008083540402835291602001916117a3565b820191906000526020600020905b81548152906001019060200180831161178657829003601f168201915b505050505086612069565b611842600d80546117be906138d8565b80601f01602080910402602001604051908101604052809291908181526020018280546117ea906138d8565b80156118375780601f1061180c57610100808354040283529160200191611837565b820191906000526020600020905b81548152906001019060200180831161181a57829003601f168201915b505050505086612069565b6118d6600e8054611852906138d8565b80601f016020809104026020016040519081016040528092919081815260200182805461187e906138d8565b80156118cb5780601f106118a0576101008083540402835291602001916118cb565b820191906000526020600020905b8154815290600101906020018083116118ae57829003601f168201915b505050505086612069565b6040516020016118e994939291906131e5565b60405160208183030381529060405290509392505050565b6060600082519050600081141561192a5760405180602001604052806000815250915050611aba565b6000600360028361193b919061370d565b6119459190613763565b60046119519190613794565b90506000602082611962919061370d565b67ffffffffffffffff8111156119a1577f4e487b7100000000000000000000000000000000000000000000000000000000600052604160045260246000fd5b6040519080825280601f01601f1916602001820160405280156119d35781602001600182028036833780820191505090505b5090506000604051806060016040528060408152602001613ab8604091399050600181016020830160005b86811015611a775760038101905062ffffff818a015116603f8160121c168401518060081b905060ff603f83600c1c1686015116810190508060081b905060ff603f8360061c1686015116810190508060081b905060ff603f831686015116810190508060e01b905080845260048401935050506119fe565b506003860660018114611a915760028114611aa157611aac565b613d3d60f01b6002830352611aac565b603d60f81b60018303525b508484525050819450505050505b919050565b611ad9828260405180602001604052806000815250612095565b5050565b611ae682611245565b611b25576040517f08c379a0000000000000000000000000000000000000000000000000000000008152600401611b1c906134dd565b60405180910390fd5b80600660008481526020019081526020016000209080519060200190611b4c9291906122d1565b505050565b6001816000016000828254019250508190555050565b611c01838383604051602401611b7f9392919061339f565b6040516020818303038152906040527fe3849f79000000000000000000000000000000000000000000000000000000007bffffffffffffffffffffffffffffffffffffffffffffffffffffffff19166020820180517bffffffffffffffffffffffffffffffffffffffffffffffffffffffff8381831617835250505050611ea4565b505050565b606060405180602001604052806000815250905090565b6060611c2882611245565b611c67576040517f08c379a0000000000000000000000000000000000000000000000000000000008152600401611c5e9061357d565b60405180910390fd5b6000611c71611c06565b90506000815111611c915760405180602001604052806000815250611cbc565b80611c9b84611cc4565b604051602001611cac929190613187565b6040516020818303038152906040525b915050919050565b60606000821415611d0c576040518060400160405280600181526020017f30000000000000000000000000000000000000000000000000000000000000008152509050611e6c565b600082905060005b60008214611d3e578080611d279061390a565b915050600a82611d379190613763565b9150611d14565b60008167ffffffffffffffff811115611d80577f4e487b7100000000000000000000000000000000000000000000000000000000600052604160045260246000fd5b6040519080825280601f01601f191660200182016040528015611db25781602001600182028036833780820191505090505b5090505b60008514611e6557600182611dcb91906137ee565b9150600a85611dda919061395d565b6030611de6919061370d565b60f81b818381518110611e22577f4e487b7100000000000000000000000000000000000000000000000000000000600052603260045260246000fd5b60200101907effffffffffffffffffffffffffffffffffffffffffffffffffffffffffffff1916908160001a905350600a85611e5e9190613763565b9450611db6565b8093505050505b919050565b600081604051602001611e849190613170565b6040516020818303038152906040528051906020012060001c9050919050565b60008151905060006a636f6e736f6c652e6c6f679050602083016000808483855afa5050505050565b505050565b6000611ef38473ffffffffffffffffffffffffffffffffffffffff166120f0565b1561205c578373ffffffffffffffffffffffffffffffffffffffff1663150b7a02611f1c6112b1565b8786866040518563ffffffff1660e01b8152600401611f3e94939291906132ed565b602060405180830381600087803b158015611f5857600080fd5b505af1925050508015611f8957506040513d601f19601f82011682018060405250810190611f869190612704565b60015b61200c573d8060008114611fb9576040519150601f19603f3d011682016040523d82523d6000602084013e611fbe565b606091505b50600081511415612004576040517f08c379a0000000000000000000000000000000000000000000000000000000008152600401611ffb906133dd565b60405180910390fd5b805181602001fd5b63150b7a0260e01b7bffffffffffffffffffffffffffffffffffffffffffffffffffffffff1916817bffffffffffffffffffffffffffffffffffffffffffffffffffffffff191614915050612061565b600190505b949350505050565b6060828260405160200161207e9291906131ab565b604051602081830303815290604052905092915050565b61209f8383612103565b6120ac6000848484611ed2565b6120eb576040517f08c379a00000000000000000000000000000000000000000000000000000000081526004016120e2906133dd565b60405180910390fd5b505050565b600080823b905060008111915050919050565b600073ffffffffffffffffffffffffffffffffffffffff168273ffffffffffffffffffffffffffffffffffffffff161415612173576040517f08c379a000000000000000000000000000000000000000000000000000000000815260040161216a906134fd565b60405180910390fd5b61217c81611245565b156121bc576040517f08c379a00000000000000000000000000000000000000000000000000000000081526004016121b3906133fd565b60405180910390fd5b6121c860008383611ecd565b6001600360008473ffffffffffffffffffffffffffffffffffffffff1673ffffffffffffffffffffffffffffffffffffffff1681526020019081526020016000206000828254612218919061370d565b92505081905550816002600083815260200190815260200160002060006101000a81548173ffffffffffffffffffffffffffffffffffffffff021916908373ffffffffffffffffffffffffffffffffffffffff160217905550808273ffffffffffffffffffffffffffffffffffffffff16600073ffffffffffffffffffffffffffffffffffffffff167fddf252ad1be2c89b69c2b068fc378daa952ba7f163c4a11628f55a4df523b3ef60405160405180910390a45050565b8280546122dd906138d8565b90600052602060002090601f0160209004810192826122ff5760008555612346565b82601f1061231857805160ff1916838001178555612346565b82800160010185558215612346579182015b8281111561234557825182559160200191906001019061232a565b5b5090506123539190612357565b5090565b5b80821115612370576000816000905550600101612358565b5090565b600061238761238284613629565b6135f8565b9050808382526020820190508260005b858110156123c757813585016123ad88826124f5565b845260208401935060208301925050600181019050612397565b5050509392505050565b60006123e46123df84613655565b6135f8565b9050828152602081018484840111156123fc57600080fd5b612407848285613896565b509392505050565b600061242261241d84613685565b6135f8565b90508281526020810184848401111561243a57600080fd5b612445848285613896565b509392505050565b60008135905061245c81613a5b565b92915050565b600082601f83011261247357600080fd5b8135612483848260208601612374565b91505092915050565b60008135905061249b81613a72565b92915050565b6000813590506124b081613a89565b92915050565b6000815190506124c581613a89565b92915050565b600082601f8301126124dc57600080fd5b81356124ec8482602086016123d1565b91505092915050565b600082601f83011261250657600080fd5b813561251684826020860161240f565b91505092915050565b60008135905061252e81613aa0565b92915050565b60006020828403121561254657600080fd5b60006125548482850161244d565b91505092915050565b6000806040838503121561257057600080fd5b600061257e8582860161244d565b925050602061258f8582860161244d565b9150509250929050565b6000806000606084860312156125ae57600080fd5b60006125bc8682870161244d565b93505060206125cd8682870161244d565b92505060406125de8682870161251f565b9150509250925092565b600080600080608085870312156125fe57600080fd5b600061260c8782880161244d565b945050602061261d8782880161244d565b935050604061262e8782880161251f565b925050606085013567ffffffffffffffff81111561264b57600080fd5b612657878288016124cb565b91505092959194509250565b6000806040838503121561267657600080fd5b60006126848582860161244d565b92505060206126958582860161248c565b9150509250929050565b600080604083850312156126b257600080fd5b60006126c08582860161244d565b92505060206126d18582860161251f565b9150509250929050565b6000602082840312156126ed57600080fd5b60006126fb848285016124a1565b91505092915050565b60006020828403121561271657600080fd5b6000612724848285016124b6565b91505092915050565b60006020828403121561273f57600080fd5b600061274d8482850161251f565b91505092915050565b6000806040838503121561276957600080fd5b60006127778582860161251f565b925050602083013567ffffffffffffffff81111561279457600080fd5b6127a085828601612462565b9150509250929050565b6127b381613822565b82525050565b6127c281613834565b82525050565b60006127d3826136ca565b6127dd81856136e0565b93506127ed8185602086016138a5565b6127f681613a4a565b840191505092915050565b600061280c826136d5565b61281681856136f1565b93506128268185602086016138a5565b61282f81613a4a565b840191505092915050565b6000612845826136d5565b61284f8185613702565b935061285f8185602086016138a5565b80840191505092915050565b60008154612878816138d8565b6128828186613702565b9450600182166000811461289d57600181146128ae576128e1565b60ff198316865281860193506128e1565b6128b7856136b5565b60005b838110156128d9578154818901526001820191506020810190506128ba565b838801955050505b50505092915050565b60006128f76032836136f1565b91507f4552433732313a207472616e7366657220746f206e6f6e20455243373231526560008301527f63656976657220696d706c656d656e74657200000000000000000000000000006020830152604082019050919050565b600061295d601c836136f1565b91507f4552433732313a20746f6b656e20616c7265616479206d696e746564000000006000830152602082019050919050565b600061299d6024836136f1565b91507f4552433732313a207472616e7366657220746f20746865207a65726f2061646460008301527f72657373000000000000000000000000000000000000000000000000000000006020830152604082019050919050565b6000612a036019836136f1565b91507f4552433732313a20617070726f766520746f2063616c6c6572000000000000006000830152602082019050919050565b6000612a43602c836136f1565b91507f4552433732313a206f70657261746f7220717565727920666f72206e6f6e657860008301527f697374656e7420746f6b656e00000000000000000000000000000000000000006020830152604082019050919050565b6000612aa9600383613702565b91507f272f3e00000000000000000000000000000000000000000000000000000000006000830152600382019050919050565b6000612ae96038836136f1565b91507f4552433732313a20617070726f76652063616c6c6572206973206e6f74206f7760008301527f6e6572206e6f7220617070726f76656420666f7220616c6c00000000000000006020830152604082019050919050565b6000612b4f602a836136f1565b91507f4552433732313a2062616c616e636520717565727920666f7220746865207a6560008301527f726f2061646472657373000000000000000000000000000000000000000000006020830152604082019050919050565b6000612bb5600b83613702565b91507f547269204c696e657320230000000000000000000000000000000000000000006000830152600b82019050919050565b6000612bf56029836136f1565b91507f4552433732313a206f776e657220717565727920666f72206e6f6e657869737460008301527f656e7420746f6b656e00000000000000000000000000000000000000000000006020830152604082019050919050565b6000612c5b602e836136f1565b91507f45524337323155524953746f726167653a2055524920736574206f66206e6f6e60008301527f6578697374656e7420746f6b656e0000000000000000000000000000000000006020830152604082019050919050565b6000612cc1600283613702565b91507f227d0000000000000000000000000000000000000000000000000000000000006000830152600282019050919050565b6000612d016020836136f1565b91507f4552433732313a206d696e7420746f20746865207a65726f20616464726573736000830152602082019050919050565b6000612d416031836136f1565b91507f45524337323155524953746f726167653a2055524920717565727920666f722060008301527f6e6f6e6578697374656e7420746f6b656e0000000000000000000000000000006020830152604082019050919050565b6000612da7602c836136f1565b91507f4552433732313a20617070726f76656420717565727920666f72206e6f6e657860008301527f697374656e7420746f6b656e00000000000000000000000000000000000000006020830152604082019050919050565b6000612e0d6029836136f1565b91507f4552433732313a207472616e73666572206f6620746f6b656e2074686174206960008301527f73206e6f74206f776e00000000000000000000000000000000000000000000006020830152604082019050919050565b6000612e73600e83613702565b91507f207374796c653d2766696c6c3a230000000000000000000000000000000000006000830152600e82019050919050565b6000612eb3602f836136f1565b91507f4552433732314d657461646174613a2055524920717565727920666f72206e6f60008301527f6e6578697374656e7420746f6b656e00000000000000000000000000000000006020830152604082019050919050565b6000612f19600a83613702565b91507f7b226e616d65223a2022000000000000000000000000000000000000000000006000830152600a82019050919050565b6000612f596021836136f1565b91507f4552433732313a20617070726f76616c20746f2063757272656e74206f776e6560008301527f72000000000000000000000000000000000000000000000000000000000000006020830152604082019050919050565b6000612fbf601d83613702565b91507f646174613a6170706c69636174696f6e2f6a736f6e3b6261736536342c0000006000830152601d82019050919050565b6000612fff6031836136f1565b91507f4552433732313a207472616e736665722063616c6c6572206973206e6f74206f60008301527f776e6572206e6f7220617070726f7665640000000000000000000000000000006020830152604082019050919050565b6000613065606a83613702565b91507f222c20226465736372697074696f6e223a202247656e6572617469766520747260008301527f69206c696e6520617274206275696c74206f6e2074686520626c6f636b63686160208301527f696e2e222c2022696d616765223a2022646174613a696d6167652f7376672b7860408301527f6d6c3b6261736536342c000000000000000000000000000000000000000000006060830152606a82019050919050565b6000613117600683613702565b91507f3c2f7376673e00000000000000000000000000000000000000000000000000006000830152600682019050919050565b6131538161388c565b82525050565b61316a6131658261388c565b613953565b82525050565b600061317c828461283a565b915081905092915050565b6000613193828561283a565b915061319f828461283a565b91508190509392505050565b60006131b7828561283a565b91506131c282612e66565b91506131ce828461283a565b91506131d982612a9c565b91508190509392505050565b60006131f1828761286b565b91506131fd828661283a565b9150613209828561283a565b9150613215828461283a565b91506132208261310a565b915081905095945050505050565b600061323982612ba8565b9150819050919050565b600061324e82612f0c565b915061325a828561283a565b915061326582613058565b9150613271828461283a565b915061327c82612cb4565b91508190509392505050565b600061329382612fb2565b915061329f828461283a565b915081905092915050565b60006132b68285613159565b6020820191506132c6828461283a565b91508190509392505050565b60006020820190506132e760008301846127aa565b92915050565b600060808201905061330260008301876127aa565b61330f60208301866127aa565b61331c604083018561314a565b818103606083015261332e81846127c8565b905095945050505050565b600060408201905061334e60008301856127aa565b61335b602083018461314a565b9392505050565b600060208201905061337760008301846127b9565b92915050565b600060208201905081810360008301526133978184612801565b905092915050565b600060608201905081810360008301526133b98186612801565b90506133c8602083018561314a565b6133d560408301846127aa565b949350505050565b600060208201905081810360008301526133f6816128ea565b9050919050565b6000602082019050818103600083015261341681612950565b9050919050565b6000602082019050818103600083015261343681612990565b9050919050565b60006020820190508181036000830152613456816129f6565b9050919050565b6000602082019050818103600083015261347681612a36565b9050919050565b6000602082019050818103600083015261349681612adc565b9050919050565b600060208201905081810360008301526134b681612b42565b9050919050565b600060208201905081810360008301526134d681612be8565b9050919050565b600060208201905081810360008301526134f681612c4e565b9050919050565b6000602082019050818103600083015261351681612cf4565b9050919050565b6000602082019050818103600083015261353681612d34565b9050919050565b6000602082019050818103600083015261355681612d9a565b9050919050565b6000602082019050818103600083015261357681612e00565b9050919050565b6000602082019050818103600083015261359681612ea6565b9050919050565b600060208201905081810360008301526135b681612f4c565b9050919050565b600060208201905081810360008301526135d681612ff2565b9050919050565b60006020820190506135f2600083018461314a565b92915050565b6000604051905081810181811067ffffffffffffffff8211171561361f5761361e613a1b565b5b8060405250919050565b600067ffffffffffffffff82111561364457613643613a1b565b5b602082029050602081019050919050565b600067ffffffffffffffff8211156136705761366f613a1b565b5b601f19601f8301169050602081019050919050565b600067ffffffffffffffff8211156136a05761369f613a1b565b5b601f19601f8301169050602081019050919050565b60008190508160005260206000209050919050565b600081519050919050565b600081519050919050565b600082825260208201905092915050565b600082825260208201905092915050565b600081905092915050565b60006137188261388c565b91506137238361388c565b9250827fffffffffffffffffffffffffffffffffffffffffffffffffffffffffffffffff038211156137585761375761398e565b5b828201905092915050565b600061376e8261388c565b91506137798361388c565b925082613789576137886139bd565b5b828204905092915050565b600061379f8261388c565b91506137aa8361388c565b9250817fffffffffffffffffffffffffffffffffffffffffffffffffffffffffffffffff04831182151516156137e3576137e261398e565b5b828202905092915050565b60006137f98261388c565b91506138048361388c565b9250828210156138175761381661398e565b5b828203905092915050565b600061382d8261386c565b9050919050565b60008115159050919050565b60007fffffffff0000000000000000000000000000000000000000000000000000000082169050919050565b600073ffffffffffffffffffffffffffffffffffffffff82169050919050565b6000819050919050565b82818337600083830152505050565b60005b838110156138c35780820151818401526020810190506138a8565b838111156138d2576000848401525b50505050565b600060028204905060018216806138f057607f821691505b60208210811415613904576139036139ec565b5b50919050565b60006139158261388c565b91507fffffffffffffffffffffffffffffffffffffffffffffffffffffffffffffffff8214156139485761394761398e565b5b600182019050919050565b6000819050919050565b60006139688261388c565b91506139738361388c565b925082613983576139826139bd565b5b828206905092915050565b7f4e487b7100000000000000000000000000000000000000000000000000000000600052601160045260246000fd5b7f4e487b7100000000000000000000000000000000000000000000000000000000600052601260045260246000fd5b7f4e487b7100000000000000000000000000000000000000000000000000000000600052602260045260246000fd5b7f4e487b7100000000000000000000000000000000000000000000000000000000600052604160045260246000fd5b6000601f19601f8301169050919050565b613a6481613822565b8114613a6f57600080fd5b50565b613a7b81613834565b8114613a8657600080fd5b50565b613a9281613840565b8114613a9d57600080fd5b50565b613aa98161388c565b8114613ab457600080fd5b5056fe4142434445464748494a4b4c4d4e4f505152535455565758595a6162636465666768696a6b6c6d6e6f707172737475767778797a303132333435363738392b2f416e204e4654207769746820494420257320686173206265656e206d696e74656420746f202573a2646970667358221220e28f462bf2322b1ed5f3ece2154ddd2f9cf724bce6ddda84ea1e5629c30fa20c64736f6c634300080000333c7265637420783d273231362e3734312720793d273134382e303234272077696474683d2736382e32393927206865696768743d273238332e363737273c3f786d6c2076657273696f6e3d27312e302720656e636f64696e673d277574662d38273f3e3c7376672076696577426f783d2730203020353030203530302720786d6c6e733d27687474703a2f2f7777772e77332e6f72672f323030302f737667273e3c726563742077696474683d2735303027206865696768743d2735303027207374796c653d2766696c6c3a726762283234332c203234342c2032343629272f3e3c7265637420783d2736382e3239392720793d2736382e323939272077696474683d2736382e32393927206865696768743d273238332e363737273c7265637420783d273336352e3033352720793d2736382e323939272077696474683d2736382e32393927206865696768743d273238332e36373727",
  "linkReferences": {},
  "deployedLinkReferences": {}
}